{
  "contractName": "LiquidityMigrator",
  "abi": [
    {
      "inputs": [
        {
          "internalType": "address",
          "name": "_router",
          "type": "address"
        },
        {
          "internalType": "address",
          "name": "_pair",
          "type": "address"
        },
        {
          "internalType": "address",
          "name": "_routerFork",
          "type": "address"
        },
        {
          "internalType": "address",
          "name": "_pairFork",
          "type": "address"
        },
        {
          "internalType": "address",
          "name": "_bonusToken",
          "type": "address"
        }
      ],
      "stateMutability": "nonpayable",
      "type": "constructor"
    },
    {
      "inputs": [],
      "name": "admin",
      "outputs": [
        {
          "internalType": "address",
          "name": "",
          "type": "address"
        }
      ],
      "stateMutability": "view",
      "type": "function"
    },
    {
      "inputs": [],
      "name": "bonusToken",
      "outputs": [
        {
          "internalType": "contract BonusToken",
          "name": "",
          "type": "address"
        }
      ],
      "stateMutability": "view",
      "type": "function"
    },
    {
      "inputs": [],
      "name": "migrationDone",
      "outputs": [
        {
          "internalType": "bool",
          "name": "",
          "type": "bool"
        }
      ],
      "stateMutability": "view",
      "type": "function"
    },
    {
      "inputs": [],
      "name": "pair",
      "outputs": [
        {
          "internalType": "contract IPancakePair",
          "name": "",
          "type": "address"
        }
      ],
      "stateMutability": "view",
      "type": "function"
    },
    {
      "inputs": [],
      "name": "pairFork",
      "outputs": [
        {
          "internalType": "contract IPancakePair",
          "name": "",
          "type": "address"
        }
      ],
      "stateMutability": "view",
      "type": "function"
    },
    {
      "inputs": [],
      "name": "router",
      "outputs": [
        {
          "internalType": "contract IUniswapV2Router02",
          "name": "",
          "type": "address"
        }
      ],
      "stateMutability": "view",
      "type": "function"
    },
    {
      "inputs": [],
      "name": "routerFork",
      "outputs": [
        {
          "internalType": "contract IUniswapV2Router02",
          "name": "",
          "type": "address"
        }
      ],
      "stateMutability": "view",
      "type": "function"
    },
    {
      "inputs": [
        {
          "internalType": "address",
          "name": "",
          "type": "address"
        }
      ],
      "name": "unclaimedBalances",
      "outputs": [
        {
          "internalType": "uint256",
          "name": "",
          "type": "uint256"
        }
      ],
      "stateMutability": "view",
      "type": "function"
    },
    {
      "inputs": [
        {
          "internalType": "uint256",
          "name": "amount",
          "type": "uint256"
        }
      ],
      "name": "deposit",
      "outputs": [],
      "stateMutability": "nonpayable",
      "type": "function"
    },
    {
      "inputs": [],
      "name": "migrate",
      "outputs": [],
      "stateMutability": "nonpayable",
      "type": "function"
    },
    {
      "inputs": [],
      "name": "claimLptokens",
      "outputs": [],
      "stateMutability": "nonpayable",
      "type": "function"
    }
  ],
  "bytecode": "0x608060405234801561001057600080fd5b506040516115c23803806115c2833981810160405260a081101561003357600080fd5b810190808051906020019092919080519060200190929190805190602001909291908051906020019092919080519060200190929190505050846000806101000a81548173ffffffffffffffffffffffffffffffffffffffff021916908373ffffffffffffffffffffffffffffffffffffffff16021790555083600160006101000a81548173ffffffffffffffffffffffffffffffffffffffff021916908373ffffffffffffffffffffffffffffffffffffffff16021790555082600260006101000a81548173ffffffffffffffffffffffffffffffffffffffff021916908373ffffffffffffffffffffffffffffffffffffffff16021790555081600360006101000a81548173ffffffffffffffffffffffffffffffffffffffff021916908373ffffffffffffffffffffffffffffffffffffffff160217905550600460009054906101000a900473ffffffffffffffffffffffffffffffffffffffff16600460006101000a81548173ffffffffffffffffffffffffffffffffffffffff021916908373ffffffffffffffffffffffffffffffffffffffff16021790555033600560006101000a81548173ffffffffffffffffffffffffffffffffffffffff021916908373ffffffffffffffffffffffffffffffffffffffff160217905550505050505061139b806102276000396000f3fe608060405234801561001057600080fd5b50600436106100a95760003560e01c80638bf6afaf116100715780638bf6afaf146101b85780638fd3ab8014610210578063a8aa1b311461021a578063b6b55f2514610264578063f851a44014610292578063f887ea40146102dc576100a9565b80630d81a570146100ae57806341d4a1ab146100d057806352c7262e1461011a5780635920140214610124578063766faf361461016e575b600080fd5b6100b6610326565b604051808215151515815260200191505060405180910390f35b6100d8610339565b604051808273ffffffffffffffffffffffffffffffffffffffff1673ffffffffffffffffffffffffffffffffffffffff16815260200191505060405180910390f35b61012261035f565b005b61012c61060f565b604051808273ffffffffffffffffffffffffffffffffffffffff1673ffffffffffffffffffffffffffffffffffffffff16815260200191505060405180910390f35b610176610635565b604051808273ffffffffffffffffffffffffffffffffffffffff1673ffffffffffffffffffffffffffffffffffffffff16815260200191505060405180910390f35b6101fa600480360360208110156101ce57600080fd5b81019080803573ffffffffffffffffffffffffffffffffffffffff16906020019092919050505061065b565b6040518082815260200191505060405180910390f35b610218610673565b005b610222611041565b604051808273ffffffffffffffffffffffffffffffffffffffff1673ffffffffffffffffffffffffffffffffffffffff16815260200191505060405180910390f35b6102906004803603602081101561027a57600080fd5b8101908080359060200190929190505050611067565b005b61029a61131a565b604051808273ffffffffffffffffffffffffffffffffffffffff1673ffffffffffffffffffffffffffffffffffffffff16815260200191505060405180910390f35b6102e4611340565b604051808273ffffffffffffffffffffffffffffffffffffffff1673ffffffffffffffffffffffffffffffffffffffff16815260200191505060405180910390f35b600760009054906101000a900460ff1681565b600460009054906101000a900473ffffffffffffffffffffffffffffffffffffffff1681565b6000600660003373ffffffffffffffffffffffffffffffffffffffff1673ffffffffffffffffffffffffffffffffffffffff168152602001908152602001600020541015610415576040517f08c379a00000000000000000000000000000000000000000000000000000000081526004018080602001828103825260148152602001807f6e6f20756e636c61696d65642062616c616e636500000000000000000000000081525060200191505060405180910390fd5b60011515600760009054906101000a900460ff1615151461049e576040517f08c379a00000000000000000000000000000000000000000000000000000000081526004018080602001828103825260128152602001807f6d6967726174696f6e206e6f7420646f6e65000000000000000000000000000081525060200191505060405180910390fd5b6000600660003373ffffffffffffffffffffffffffffffffffffffff1673ffffffffffffffffffffffffffffffffffffffff1681526020019081526020016000205490506000600660003373ffffffffffffffffffffffffffffffffffffffff1673ffffffffffffffffffffffffffffffffffffffff16815260200190815260200160002081905550600360009054906101000a900473ffffffffffffffffffffffffffffffffffffffff1673ffffffffffffffffffffffffffffffffffffffff1663a9059cbb33836040518363ffffffff1660e01b8152600401808373ffffffffffffffffffffffffffffffffffffffff1673ffffffffffffffffffffffffffffffffffffffff16815260200182815260200192505050602060405180830381600087803b1580156105d057600080fd5b505af11580156105e4573d6000803e3d6000fd5b505050506040513d60208110156105fa57600080fd5b81019080805190602001909291905050505050565b600360009054906101000a900473ffffffffffffffffffffffffffffffffffffffff1681565b600260009054906101000a900473ffffffffffffffffffffffffffffffffffffffff1681565b60066020528060005260406000206000915090505481565b600560009054906101000a900473ffffffffffffffffffffffffffffffffffffffff1673ffffffffffffffffffffffffffffffffffffffff163373ffffffffffffffffffffffffffffffffffffffff1614610736576040517f08c379a000000000000000000000000000000000000000000000000000000000815260040180806020018281038252600a8152602001807f6f6e6c792061646d696e0000000000000000000000000000000000000000000081525060200191505060405180910390fd5b60001515600760009054906101000a900460ff161515146107bf576040517f08c379a00000000000000000000000000000000000000000000000000000000081526004018080602001828103825260168152602001807f6d6967726174696f6e20616c726561647920646f6e650000000000000000000081525060200191505060405180910390fd5b6000600160009054906101000a900473ffffffffffffffffffffffffffffffffffffffff1673ffffffffffffffffffffffffffffffffffffffff16630dfe16816040518163ffffffff1660e01b815260040160206040518083038186803b15801561082957600080fd5b505afa15801561083d573d6000803e3d6000fd5b505050506040513d602081101561085357600080fd5b810190808051906020019092919050505090506000600160009054906101000a900473ffffffffffffffffffffffffffffffffffffffff1673ffffffffffffffffffffffffffffffffffffffff1663d21220a76040518163ffffffff1660e01b815260040160206040518083038186803b1580156108d057600080fd5b505afa1580156108e4573d6000803e3d6000fd5b505050506040513d60208110156108fa57600080fd5b810190808051906020019092919050505090506000600160009054906101000a900473ffffffffffffffffffffffffffffffffffffffff1673ffffffffffffffffffffffffffffffffffffffff166370a08231306040518263ffffffff1660e01b8152600401808273ffffffffffffffffffffffffffffffffffffffff1673ffffffffffffffffffffffffffffffffffffffff16815260200191505060206040518083038186803b1580156109ae57600080fd5b505afa1580156109c2573d6000803e3d6000fd5b505050506040513d60208110156109d857600080fd5b810190808051906020019092919050505090506000809054906101000a900473ffffffffffffffffffffffffffffffffffffffff1673ffffffffffffffffffffffffffffffffffffffff1663baa2abde84848460008030426040518863ffffffff1660e01b8152600401808873ffffffffffffffffffffffffffffffffffffffff1673ffffffffffffffffffffffffffffffffffffffff1681526020018773ffffffffffffffffffffffffffffffffffffffff1673ffffffffffffffffffffffffffffffffffffffff1681526020018681526020018581526020018481526020018373ffffffffffffffffffffffffffffffffffffffff1673ffffffffffffffffffffffffffffffffffffffff1681526020018281526020019750505050505050506040805180830381600087803b158015610b1357600080fd5b505af1158015610b27573d6000803e3d6000fd5b505050506040513d6040811015610b3d57600080fd5b810190808051906020019092919080519060200190929190505050505060008373ffffffffffffffffffffffffffffffffffffffff166370a08231306040518263ffffffff1660e01b8152600401808273ffffffffffffffffffffffffffffffffffffffff1673ffffffffffffffffffffffffffffffffffffffff16815260200191505060206040518083038186803b158015610bd957600080fd5b505afa158015610bed573d6000803e3d6000fd5b505050506040513d6020811015610c0357600080fd5b8101908080519060200190929190505050905060008373ffffffffffffffffffffffffffffffffffffffff166370a08231306040518263ffffffff1660e01b8152600401808273ffffffffffffffffffffffffffffffffffffffff1673ffffffffffffffffffffffffffffffffffffffff16815260200191505060206040518083038186803b158015610c9557600080fd5b505afa158015610ca9573d6000803e3d6000fd5b505050506040513d6020811015610cbf57600080fd5b810190808051906020019092919050505090508473ffffffffffffffffffffffffffffffffffffffff1663095ea7b3600260009054906101000a900473ffffffffffffffffffffffffffffffffffffffff16846040518363ffffffff1660e01b8152600401808373ffffffffffffffffffffffffffffffffffffffff1673ffffffffffffffffffffffffffffffffffffffff16815260200182815260200192505050602060405180830381600087803b158015610d7b57600080fd5b505af1158015610d8f573d6000803e3d6000fd5b505050506040513d6020811015610da557600080fd5b8101908080519060200190929190505050508373ffffffffffffffffffffffffffffffffffffffff1663095ea7b3600260009054906101000a900473ffffffffffffffffffffffffffffffffffffffff16836040518363ffffffff1660e01b8152600401808373ffffffffffffffffffffffffffffffffffffffff1673ffffffffffffffffffffffffffffffffffffffff16815260200182815260200192505050602060405180830381600087803b158015610e6057600080fd5b505af1158015610e74573d6000803e3d6000fd5b505050506040513d6020811015610e8a57600080fd5b810190808051906020019092919050505050600260009054906101000a900473ffffffffffffffffffffffffffffffffffffffff1673ffffffffffffffffffffffffffffffffffffffff1663e8e3370086868585878730426040518963ffffffff1660e01b8152600401808973ffffffffffffffffffffffffffffffffffffffff1673ffffffffffffffffffffffffffffffffffffffff1681526020018873ffffffffffffffffffffffffffffffffffffffff1673ffffffffffffffffffffffffffffffffffffffff1681526020018781526020018681526020018581526020018481526020018373ffffffffffffffffffffffffffffffffffffffff1673ffffffffffffffffffffffffffffffffffffffff16815260200182815260200198505050505050505050606060405180830381600087803b158015610fcd57600080fd5b505af1158015610fe1573d6000803e3d6000fd5b505050506040513d6060811015610ff757600080fd5b810190808051906020019092919080519060200190929190805190602001909291905050505050506001600760006101000a81548160ff0219169083151502179055505050505050565b600160009054906101000a900473ffffffffffffffffffffffffffffffffffffffff1681565b60001515600760009054906101000a900460ff161515146110f0576040517f08c379a00000000000000000000000000000000000000000000000000000000081526004018080602001828103825260168152602001807f6d6967726174696f6e20616c726561647920646f6e650000000000000000000081525060200191505060405180910390fd5b600160009054906101000a900473ffffffffffffffffffffffffffffffffffffffff1673ffffffffffffffffffffffffffffffffffffffff166323b872dd3330846040518463ffffffff1660e01b8152600401808473ffffffffffffffffffffffffffffffffffffffff1673ffffffffffffffffffffffffffffffffffffffff1681526020018373ffffffffffffffffffffffffffffffffffffffff1673ffffffffffffffffffffffffffffffffffffffff1681526020018281526020019350505050602060405180830381600087803b1580156111cd57600080fd5b505af11580156111e1573d6000803e3d6000fd5b505050506040513d60208110156111f757600080fd5b810190808051906020019092919050505050600460009054906101000a900473ffffffffffffffffffffffffffffffffffffffff1673ffffffffffffffffffffffffffffffffffffffff166340c10f1933836040518363ffffffff1660e01b8152600401808373ffffffffffffffffffffffffffffffffffffffff1673ffffffffffffffffffffffffffffffffffffffff16815260200182815260200192505050600060405180830381600087803b1580156112b257600080fd5b505af11580156112c6573d6000803e3d6000fd5b5050505080600660003373ffffffffffffffffffffffffffffffffffffffff1673ffffffffffffffffffffffffffffffffffffffff1681526020019081526020016000206000828254019250508190555050565b600560009054906101000a900473ffffffffffffffffffffffffffffffffffffffff1681565b6000809054906101000a900473ffffffffffffffffffffffffffffffffffffffff168156fea26469706673582212205d26513a61a37527638e79abd034f5a3be51bcd199e1c020f6edaaf85213a5cc64736f6c63430006060033",
  "immutableReferences": {},
  "source": "pragma solidity =0.6.6;\n\nimport '@openzeppelin/contracts/token/ERC20/IERC20.sol';\nimport '@uniswap/v2-periphery/contracts/interfaces/IUniswapV2Router02.sol';\nimport './interfaces/IPancakePair.sol';\nimport './BonusToken.sol';\n\ncontract LiquidityMigrator {\n  IUniswapV2Router02 public router;\n  IPancakePair public pair;\n  IUniswapV2Router02 public routerFork;\n  IPancakePair public pairFork;\n  BonusToken public bonusToken;\n  address public admin;\n  mapping(address => uint256) public unclaimedBalances;\n  bool public migrationDone;\n\n  // is a one time thing, we don't need to change the incoming routers\n  // if that's the case we create another contract\n  constructor(\n    address _router,\n    address _pair,\n    address _routerFork,\n    address _pairFork,\n    address _bonusToken\n  ) public {\n    router = IUniswapV2Router02(_router);\n    pair = IPancakePair(_pair);\n    routerFork = IUniswapV2Router02(_routerFork);\n    pairFork = IPancakePair(_pairFork);\n    bonusToken = BonusToken(bonusToken);\n    admin = msg.sender;\n  }\n\n  function deposit(uint256 amount) external {\n    require(migrationDone == false, 'migration already done');\n    pair.transferFrom(msg.sender, address(this), amount);\n    bonusToken.mint(msg.sender, amount);\n    unclaimedBalances[msg.sender] += amount;\n  }\n\n  function migrate() external {\n    require(msg.sender == admin, 'only admin');\n    require(migrationDone == false, 'migration already done');\n    IERC20 token0 = IERC20(pair.token0());\n    IERC20 token1 = IERC20(pair.token1());\n    uint256 totalBalance = pair.balanceOf(address(this));\n    router.removeLiquidity(\n      address(token0),\n      address(token1),\n      totalBalance,\n      0,\n      0,\n      address(this),\n      block.timestamp\n    );\n    uint256 token0Balance = token0.balanceOf(address(this));\n    uint256 token1Balance = token1.balanceOf(address(this));\n    token0.approve(address(routerFork), token0Balance);\n    token1.approve(address(routerFork), token1Balance);\n    routerFork.addLiquidity(\n      address(token0),\n      address(token1),\n      token0Balance,\n      token1Balance,\n      token0Balance, //min\n      token1Balance, //min\n      address(this),\n      block.timestamp\n    );\n    migrationDone = true;\n  }\n\n  function claimLptokens() external {\n    require(unclaimedBalances[msg.sender] >= 0, 'no unclaimed balance');\n    require(migrationDone == true, 'migration not done');\n    uint256 amountToSend = unclaimedBalances[msg.sender];\n    unclaimedBalances[msg.sender] = 0;\n    pairFork.transfer(msg.sender, amountToSend);\n  }\n}\n",
  "sourcePath": "/Users/dannyandres/Code/crypto/pancakeswap/migrator/contracts/LiquidityMigrator.sol",
  "compiler": {
    "name": "solc",
    "version": "0.6.6+commit.6c089d02.Emscripten.clang"
  },
  "schemaVersion": "3.4.1",
  "updatedAt": "2021-05-28T08:20:23.562Z",
  "devdoc": {
    "methods": {}
  },
  "userdoc": {
    "methods": {}
  }
}